:020000040800F2
:1000000088470020590200087B2200084920000888
:1000100079220008890300087D2D000800000000F7
:100020000000000000000000000000009D0100082A
:100030008504000800000000F101000865260008A2
:1000400073020008730200087302000873020008BC
:1000500073020008730200087302000873020008AC
:10006000730200087302000873020008730200089C
:10007000730200089903000873020008A503000832
:10008000B1030008BD0300087302000873020008F2
:100090008D03000873020008730200087302000851
:1000A000730200086D27000873020008730200083D
:1000B000730200087302000873020008730200084C
:1000C000730200087302000873020008730200083C
:1000D00073020008E92C0008552D0008730200087F
:1000E000730200087302000873020008730200081C
:1000F000730200087302000873020008730200080C
:1001000073020008730200087302000873020008FB
:1001100039280008730200087302000873020008FF
:100120007302000873020008C90300087302000884
:1001300073020008000000000000000073020008C5
:1001400073020008730200087302000873020008BB
:100150007302000873020008D50300087302000848
:10016000730200087302000873020008730200089B
:100170007302000873020008000000000000000085
:100180007302000873020008DFF80CD000F0EAF8F0
:1001900000480047F12E0008884700202B4B1968C3
:1001A0000868B0E8F04F80F30988BFF36F8F4FF015
:1001B000000080F3118870470000000006480068C6
:1001C000006880F3088862B661B6BFF34F8FBFF353
:1001D0006F8F00DF00BF00BF08ED00E0DFF80C000C
:1001E000016841F470010160704700BF88ED00E0D4
:1001F000EFF30980BFF36F8F144B1A681EF0100FD6
:1002000008BF20ED108A20E9F04F106008B44FF0CD
:10021000500080F31188BFF34F8FBFF36F8F03F04F
:100220001FFB4FF0000080F3118808BC19680868B4
:10023000B0E8F04F1EF0100F08BFB0EC108A80F34A
:100240000988BFF36F8F704700BF00BF38000020E0
:10025000EFF30580704700000648804706480047D6
:10026000FEE7FEE7FEE7FEE7FEE7FEE7FEE7FEE766
:10027000FEE7FEE719270008890100082DE9F05F75
:100280000546002092469B46884606468146402405
:100290001BE0284641464746224600F053F85346A5
:1002A0005A46C01A914110D311461846224600F012
:1002B0003AF82D1A67EB01084F462246012000212B
:1002C00000F031F817EB00094E41201EA4F10104A3
:1002D000DFDC484631462A464346BDE8F09F40EA07
:1002E00001039B0703D009E008C9121F08C0042AB4
:1002F000FAD203E011F8013B00F8013B521EF9D29B
:100300007047D2B201E000F8012B491EFBD27047C2
:100310000022F6E710B513460A4604461946FFF7D1
:10032000F0FF204610BD202A04DB203A00FA02F13B
:10033000002070479140C2F1200320FA03F31943D3
:1003400090407047202A04DB203A21FA02F0002175
:10035000704721FA02F3D040C2F1200291400843D5
:1003600019467047064C074D06E0E06840F001036F
:1003700094E8070098471034AC42F6D3FFF708FF23
:100380006C3D00088C3D0008FEE70000014800F0CD
:1003900039BA0000B8020020014800F0C9BC0000D2
:1003A000A0030020014800F0C3BC000000040020AE
:1003B000014800F0BDBC000020050020014800F00D
:1003C000B7BC000080050020014800F0B1BC00006F
:1003D00060040020014800F0ABBC0000C004002015
:1003E00001681823CAB2103AB2FBF3F2054B6FF35F
:1003F0000901032A9B5CC36500D9091D8165084674
:10040000704700001C3D000810B5014600208B69B4
:100410008A6A4FF0C07453B1B3F5005F15D072B162
:10042000012A0CD0022A0AD0032A09D104E01AB109
:10043000012A06D0022A03D1C96AC90100D50120C8
:1004400010BDC96AA142FAD010BD002AF7D0012A16
:10045000F2D0022AF3D0032AF3D010BD30B50468DD
:10046000256825F480252560046863608368402B37
:10047000036803D099600068C26030BD9A6000686C
:10048000C16030BD7047704770B5104D104A114BB8
:10049000114C00216E5C26B1012E05D0022E0DD12B
:1004A00011E0B2F9006001E0B3F9006000EE106AFB
:1004B00000EB8106B8EEC00A86ED000A491CC9B2FD
:1004C0000929E7D370BDB4F90060EFE7BD00002053
:1004D000980000209A0000209C0000200A4AFD217C
:1004E000D170012100EB810313ED010A02EB8103BE
:1004F000491CC9B283ED000A0A29F3D3092002F886
:10050000280FFE20507070474043002090F82020B4
:10051000012A09D090F82020022A05D0416A41F42E
:100520008021416201207047006842690A434261AC
:1005300000207047F0B590F82040012C07D090F8CB
:100540002040022C03D0416A41F4802153E004682A
:10055000A5686D0105D4A5682D0102D4A568ED003C
:1005600046D5A4680125C4F30164A5401D608D68CB
:100570004FF4C0739DB1CE6835434E6845EAC60559
:10058000066803EB0417F5514FF4C275076805EBD5
:1005900004150E697E51097D012905D009E00E88F8
:1005A000CD6845EA4655EBE701684E5946F480763A
:1005B0004E511179D2F805504FF4C67641EA052123
:1005C000056806EB0416A9511178D2F801204FF402
:1005D000C47541EA0221026805EB04155151006817
:1005E00003EB0411425842F0010242500020F0BDDA
:1005F000416A41F4001141620120F0BD10B590F84C
:100600002020012A09D090F82020022A05D0416A32
:1006100041F480214162012010BD3A48D0F8002207
:1006200042F00102C0F80022D0F8002222F47C52ED
:10063000C0F80022D0F800224B6A42EA0322C0F838
:1006400000220B7D01229A40D0F81C329343C0F85F
:100650001C32CB69B3B9D0F80C329343C0F80C32DA
:100660008C894B6864F31F434C6900EBC404C4F8E5
:1006700040320C890B6864F31F434C6900EBC404DF
:10068000C4F84432CB69012B16D1D0F80C32134395
:10069000C0F80C320C884B6864F31F434C6900EBC4
:1006A000C404C4F840320C89CB6864F31F434C691E
:1006B00000EBC404C4F844328B69002BD0F8043238
:1006C0000ED01343C0F804320B69002BD0F814325B
:1006D00008D01343C0F81432096A012904D008E095
:1006E0009343EFE79343F5E7D0F81C121143C0F8AA
:1006F0001C12D0F8001221F00101C0F800120020F5
:1007000010BD000000640040704730B590F82040F4
:10071000012C07D090F82040022C03D0416A41F40C
:10072000802109E011B1012909D00CE00468E468D6
:1007300007E0416A41F400114162012030BD0468C4
:100740002469A407F5D04FF4D874056804EB0114AC
:100750002D5915F00405956005682D5942D0ED0816
:10076000556005682C59C4F34004D4604FF4DA7422
:10077000056804EB01142D5905F00F051561056896
:100780002D59C5F30725956105682C59240C546132
:100790004FF4DC72046802EB0112A4581C70046868
:1007A000A458240A5C700468A458240C9C70046843
:1007B000A258120EDA704FF4DE72046802EB0112D6
:1007C000A4581C710468A458240A5C710468A458D5
:1007D000240C9C710468A258120EDA7129B1012907
:1007E00009D00DE06D0D1560BBE70068C16841F0F0
:1007F0002001C16004E00068016941F0200101614D
:10080000002030BD2DE9F05F0546006800244669F0
:10081000D0F804908768D0F80CB0D0F810A0D0F8C9
:100820001880F10748D0F90714D001218160B8077A
:1008300003D5284600F01DFA0CE0780702D54FF4E6
:10084000006407E0380702D54FF4805402E02846E0
:1008500000F00EFAF80516D529684FF4807088600C
:10086000B80503D5284600F006FA0CE0780502D555
:1008700044F4005407E0380502D544F4804402E013
:10088000284600F0F7F9F80316D529684FF48030B0
:100890008860B80303D5284600F0EFF90CE0780330
:1008A00002D544F4004407E0380302D544F4803410
:1008B00002E0284600F0E0F9300707D55FEACB6098
:1008C00004D52968102044F40074C86070074FF004
:1008D000080707D55FEA0B7004D52868C76028466B
:1008E00000F05AF9B00706D52868C068800702D022
:1008F000284600F053F9700607D55FEACA6004D5B0
:100900002968102044F480640861B00607D55FEAC6
:100910000A7004D528680761284600F079F9F006C6
:1009200006D528680069800702D0284600F071F9D2
:10093000B00308D55FEAC96005D529681020486072
:10094000284600F067F9F00307D55FEA097004D57F
:1009500028684760284600F091F9300446D55FEAE0
:10096000497040D5F00504D55FEAC87001D044F065
:100970000104B00504D55FEA887001D544F0020493
:10098000700504D55FEA487001D544F004043005D1
:1009900029D518F0700F26D008F07000402815D027
:1009A00006DC102809D020280AD0302816D10AE009
:1009B00050280ED0602811D10EE044F008040DE05C
:1009C00044F010040AE044F0200407E044F040043E
:1009D00004E044F0800401E044F4807428688169F4
:1009E00021F070018161296804204860002C05D045
:1009F000686A204368622846FFF786FEBDE8F09FDC
:100A000070B5040003D094F8200010B104E0012078
:100A100070BD204600F082F82068016821F00201D4
:100A2000016000F0FDFB0546052604E000F0F8FB40
:100A3000401B0A2811D8206840688007F6D4206837
:100A4000016841F00101016000F0EAFB05460BE09E
:100A500000F0E6FB401B0A2806D9606A40F400302B
:100A6000606284F82060D2E720684068C007EFD059
:100A7000207E0128206801683DD021F080010160BE
:100A8000607E01282068016838D021F040010160B3
:100A9000A07E01282068016833D021F02001016088
:100AA000E07E0128206801682ED041F0100101602D
:100AB000207F01282068016829D021F00801016009
:100AC000607F01282068016824D021F004010160C2
:100AD000D4E902010843D4E90412114308436168D0
:100AE000491E08432168C86100206062012084F823
:100AF0002000002070BD41F08001C0E741F04001BE
:100B0000C5E741F02001CAE721F01001CFE741F02D
:100B10000801D4E741F00401D9E7000010B586B020
:100B2000044614216846FFF7F3FB18492068884201
:100B300029D117480021026842F000720260006863
:100B400000F00070059012481038026842F001026F
:100B50000260006800F0010005904FF4C050009062
:100B60000220CDE901010320039009200490694689
:100B7000084800F077FA00220521142000F0DAFB83
:100B8000142000F0CBFB06B010BD00000064004054
:100B900040380240000002407047000000B589B0B4
:100BA0006B4602AA0021FFF7B0FD02991548164ACC
:100BB000A1F50071013904D0012909D0022919D108
:100BC0000EE0BDF8021049BA41800180518011E069
:100BD000BDF8021049BA418443880384118009E0BA
:100BE000BDF8001049BAA0F84810BDF8021049BA83
:100BF000A0F8401005480068416941F002014161D8
:100C000009B000BD2C0100209A000020B80200208D
:100C1000704770477047000070B5044690F8200098
:100C2000012804D0606A40F40020606218E00220CD
:100C300084F820002068016821F00101016000F0C3
:100C4000EFFA05460EE000BF00F0EAFA401B0A2862
:100C500008D9606A40F400306062052084F8200002
:100C6000012070BD20684068C007EDD1606270BD92
:100C700070477047704770477047704770472DE95D
:100C8000F0410446876D00F0CBFA064694F8350033
:100C90000025022806D08020606584F834500120A9
:100CA000BDE8F0812068016821F01601016020682C
:100CB000416921F080014161206C08B9A06C20B12C
:100CC0002068016821F0080101602068016821F0B6
:100CD000010101600BE000F0A3FA801B052806D992
:100CE0002020606504F8345F03206070D8E7206836
:100CF0000068C007EFD194F85C103F208840B860CE
:100D000004F8345F012060700020C9E790F83510C6
:100D1000022903D08021416501207047052180F818
:100D200035100068016821F0010101600020704762
:100D30002DE9F84304464FF00009CDF800906348D0
:100D40004FF41651A56D0068B0FBF1F72E6894F8CA
:100D50005C10082000FA01F131420FD021680A68C6
:100D600052070BD50A6822F004020A6094F85C105E
:100D70008840A860606D40F00100606594F85C10E8
:100D80004FF0010808FA01F0304208D021684969A3
:100D9000090604D5A860606D40F00200606594F813
:100DA0005C1004208840304208D021680968890717
:100DB00004D5A860606D40F00400606594F85C1094
:100DC00010208840304218D021680968090714D5DE
:100DD000A86020680168490304D50068000308D5AD
:100DE000A16C07E00168C90503D4016821F008017E
:100DF0000160216C09B12046884794F85C102020DE
:100E00008840304231D021680968C9062DD5A860D4
:100E100094F8350005282068016806D0490347D5B5
:100E2000006800031DD4616C1CE021F01601016014
:100E30002068416921F080014161206C08B9A06CF3
:100E400020B12068016821F00801016094F85C106D
:100E50003F208840A86084F8349084F83580216D64
:100E60001FE0E16B09B120468847606D00282BD058
:100E7000606DC00714D0052084F835002068016833
:100E800021F0010101600098401C0090B84203D895
:100E900020680068C007F6D184F8349084F8358063
:100EA000E16C002910D001B02046BDE8F0430847AE
:100EB0000168C905D5D4016821F01001016084F8EA
:100EC000349084F83580CCE7BDE8F8833400002006
:100ED0002DE9F041044600F0A3F906465CB1002577
:100EE00084F83450022084F835002068016821F02D
:100EF000010101600DE00120BDE8F08100F090F9F2
:100F0000801B052805D920206065032084F8350062
:100F1000F2E720680068C007F0D122681168204815
:100F20000140D4E901031843D4E90336334318439D
:100F300063691843A3691843E3691843236A184394
:100F40000843616A042903D1D4E90B131943084308
:100F5000106020684069666A20F0070130460E4341
:100F6000012704280CD1A06A0643E06A40B120465C
:100F7000FFF74AFA20B14020606584F83570BAE77F
:100F8000206846612046FFF72BFA94F85C203F2149
:100F900091408160656584F835700020ACE7000001
:100FA0003F8010F070B5044690F834000025012809
:100FB0000CD0012084F8340094F835600020012E14
:100FC00006D084F834000225284670BD022070BD8A
:100FD000022684F8356060652046FFF73FFA2068F6
:100FE000016841F001010160EEE72DE9F04104469E
:100FF000866D90F83400002501280DD0012084F87A
:10100000340094F835700020012F07D084F83400A4
:1010100002252846BDE8F0810220FBE7022784F87C
:10102000357060652046FFF719FA94F85C103F2090
:101030008840B0602068016841F0160101602068B6
:10104000416941F080014161206C20B12068016854
:1010500041F0080101602068016841F00101016070
:10106000D7E700002DE9F84FDFF87CB100224FF000
:1010700001084FF0030A4FF00F090BF1040E00BFF7
:101080000B6808FA02F42340A3426ED14D68022D8A
:1010900001D0122D0ED1D50800EB850CDCF82050C4
:1010A0005607F70E09FA07F6B5430E69BE402E4300
:1010B000CCF82060066855000F790AFA05FC07F0A5
:1010C000030726EA0C06AF40374307604E68012E3F
:1010D00005D0022E03D0112E01D0122E0ED186681B
:1010E000CF6826EA0C06AF40374387604668A643C0
:1010F0000C79C4F30014944034434460C6688C688F
:1011000026EA0C06AC403443C4604C68E40065D564
:10111000364C256845F480452560246822F0030597
:1011200004F480440094324C2E19D6F808489507F0
:101130002F0F09FA07F5AC432E4DA84201D1002527
:1011400024E02D4DA84201D101251FE02B4DA842DE
:1011500001D102251AE02A4DA84201D1032515E04C
:10116000284DA84202D1042510E037E0264DA842C0
:1011700001D105250AE0254DA84201D1062505E04B
:10118000234DA84201D1072500E00825BD40254395
:10119000C6F80858DBF800405D464E689C43F603ED
:1011A00000D51C432C60DEF8004075464E689C4319
:1011B000B60300D51C432C600B4D08352C684E68D7
:1011C0009C43F60200D51C432C60074D0C352C685F
:1011D0004E689C43B60200D51C432C60521C102A5A
:1011E000FFF44EAFBDE8F88F003C014044380240A8
:1011F00000300140000002400004024000080240AC
:10120000000C02400010024000140240001802408E
:10121000001C02400069084000D001207047000017
:10122000014880687047000028000020024881685B
:101230000278114481607047280000200B4810B5E7
:10124000016841F400710160016841F4806101604E
:10125000016841F480710160032000F08BF80020E8
:1012600000F006F800F03EF8002010BD003C0240FF
:1012700010B5014688B00022192000F05BF8192053
:1012800000F04CF813480024016841F001010160AE
:10129000006805A900F001000690684600F014F906
:1012A00000F042F90C494000B0FBF1F10C480B4A48
:1012B000491E026040F2E732C0E90324C0E901148C
:1012C00000F004FB10B1012008B010BD044800F08C
:1012D00019FBF9E74438024040420F00000001408A
:1012E000140600200C4882B0016841F4804101607E
:1012F000006800F4804000900748001F016841F03A
:10130000805101600068002200F0805000900F21A1
:10131000901E02B000F00EB84438024000F01F02E8
:10132000012191404009800000F1E020C0F8001147
:1013300070470000F0B40E4B1B680C46C3F3022349
:10134000C3F10705042D00D90425191D072901D271
:10135000002300E0DB1E012606FA05F1491E2140AC
:1013600099409E40761E16403143F0BC00F086BF87
:101370000CED00E0064900F0070208684FF6FF0395
:10138000184040EA0220034A1043086070470000FA
:101390000CED00E00000FA052DE9F0470E460500CF
:1013A00065D0DFF81481D8F80000F7B200F00F0024
:1013B000B04207D288F80070D8F8000000F00F00A3
:1013C000B04254D128683D4C810712D5400703D55F
:1013D000206840F4E05020602878000703D520689A
:1013E00040F4604020602068A96820F0F0000843C5
:1013F00020602878C0072DD0304968680839012856
:1014000012D0022813D0032811D0096889070029B7
:101410002DDA216821F0030101432160FFF700FF6D
:10142000814641F2883A0EE009688903EFE70968CE
:101430008901ECE7FFF7F4FEA0EB0901514502D961
:101440000320BDE8F0872068696800F00C00B0EB6D
:10145000810FEFD1D8F80010404601F00F01B142E2
:1014600007D90770006800F00F00B04201D00120DA
:10147000E7E72878400705D52068E96820F4E050C0
:10148000084320602878000706D52068296920F4E1
:10149000604040EAC100206000F056F82168084A28
:1014A000C1F30311515CC840064908600020FFF7F2
:1014B000DFFE0020C5E70000003C02400838024083
:1014C000243D0008340000200F2202600C4A1368FB
:1014D00003F003034360136803F0F00383601368B1
:1014E00003F4E053C36012684FF4E05303EAD202FE
:1014F00002610448006800F00F00086070470000B7
:1015000008380240003C0240044805490068096868
:10151000044AC1F38221515CC84070473400002066
:1015200008380240343D000804480549006809684D
:10153000044AC1F34231515CC84070473400002076
:1015400008380240343D0008154810B5006810F016
:101550000C02144813D01449042A0FD0082A0ED1C3
:101560000F4C241F2268236802F03F025B0207D55C
:101570002068C0F38810A0FB010106E0084610BDFA
:101580002168C1F38811A1FB00010023FEF776FE5C
:101590002168C1F30141491C4900B0FBF1F010BDC5
:1015A000083802400024F40040787D012DE9F84F0E
:1015B000050076D02878DFF8F8B2BE4CC00749D0D5
:1015C000DBF800105846C1F38101012908D00068FA
:1015D000C0F3810002280AD1201D0068400206D510
:1015E0002068800336D568680028E2D032E0686859
:1015F000B0F5803F10D0B0F5A02F206810D020F4B7
:1016000080302060206820F4802020606868A0B1CD
:10161000FFF706FE06460CE0206840F48030F4E751
:1016200040F480202060F7E7FFF7FAFD801B642874
:1016300073D820688003F7D50CE0FFF7F1FD06466C
:1016400005E000BFFFF7ECFD801B6428F0D82068A0
:101650008003F7D42878DFF8608280074FF0000914
:101660003ED5DBF80010584611F00C0F09D0006889
:10167000C0F3810002280BD18D48001F0068400292
:1016800006D42068800715D5E868012809D111E043
:10169000E868B8B10120C8F80000FFF7C1FD0646B0
:1016A00005E002E1FFF7BCFD801B0228C0D82068DE
:1016B0008007F7D52068296920F0F80040EAC100CA
:1016C00020600DE0C8F80090FFF7AAFD064604E090
:1016D000FFF7A6FD801B02281FD820688007F7D4DB
:1016E0002878000722D5724E744869696C3671B14A
:1016F00001210160FFF794FD074604E0FFF790FD2C
:10170000C01B022809D830688007F7D50EE0C0F862
:101710000090FFF785FD074605E083E0FFF780FDB9
:10172000C01B02287ED830688007F7D4287840078D
:1017300068D5DFF87CA100270AF1380ADAF8000042
:10174000C0000BD4DAF8001041F08051CAF8001044
:10175000DAF80000012700F080500090584E306801
:10176000C00510D4306840F480703060FFF758FD39
:10177000009005E0FFF754FD0099401A022851D867
:101780003068C005F6D54A4EA868683601280FD0E3
:101790000528306810D020F001003060306820F05B
:1017A00004003060A868B8B1FFF73AFD00900FE080
:1017B000306840F00100F4E740F004003060F7E7E3
:1017C000FFF72EFD0099411A41F28830814264D81A
:1017D00030688007F4D50EE0FFF722FD009007E0A7
:1017E000FFF71EFD0099411A41F28830814254D81A
:1017F00030688007F4D42FB1DAF8001021F080515E
:10180000CAF80010A869C0B3DBF80010C1F3810169
:1018100002294AD00228484607D0C8F86000FFF7DE
:10182000FFFC00E039E005463AE04746C8F86000B2
:10183000FFF7F6FC064604E0FFF7F2FC801B0228E7
:101840002BD820688001F7D4D5E907010843A96A9D
:101850001C4A490802EB01416A6A41EA82110843C5
:1018600095F82C1040EA01611148001F0160012029
:101870003866FFF7D5FC054605E014E0FFF7D0FC1D
:10188000401B022809D820688001F7D50BE000BF73
:10189000FFF7C6FC401B022802D90320BDE8F88FE1
:1018A00020688001F4D40020F8E70120F6E700006A
:1018B000083802400038024000004742800E47428C
:1018C000007000400000FFFF7047704710B5040033
:1018D00003D094F8390010B107E0012010BD0020BA
:1018E00084F83800204600F00CF8022084F8390013
:1018F000211D206800F040FF012084F839000020FD
:1019000010BD70470168CA6842F00102CA600068F1
:10191000016841F00101016000207047704770B517
:101920000446006801694FF00005C943890715D4D2
:10193000C168C943890711D4E91E016101202076DD
:10194000206880698007204602D0FFF7E7FF04E0A7
:1019500000F098F8204600F096F825762068016996
:10196000C943490717D4C168C943490713D46FF065
:1019700004010161022020762068806910F4407F14
:10198000204602D0FFF7CAFF04E000F07BF82046B3
:1019900000F079F8257620680169C943090716D453
:1019A000C168C943090712D46FF00801016104201E
:1019B00020762068C0698007204602D0FFF7AEFF7E
:1019C00004E000F05FF8204600F05DF8257620681E
:1019D0000169C943C90617D4C168C943C90613D4EC
:1019E0006FF010010161082020762068C06910F4B2
:1019F000407F204602D0FFF791FF04E000F042F85C
:101A0000204600F040F8257620680169C943C907DF
:101A100008D1C168C943C90704D1891E01612046A4
:101A200000F032F820680169C943090609D4C16889
:101A3000C943090605D46FF0800101612046FFF714
:101A400043FF20680169C943490609D4C168C943F5
:101A5000490605D46FF040010161204600F01EF8F0
:101A600020680169C94389060BD4C168C943890646
:101A700007D46FF0200101612046BDE87040FFF7F8
:101A800024BF70BD7047704700680349884201D188
:101A9000FFF7CCBB7047000000000140704710B555
:101AA00004460068416994F83920C1F3C011212A25
:101AB0000BD151B1416921F080014161206B08B126
:101AC000FFF7DDF8204600F037FF2068416994F801
:101AD0003A20C1F38011222A0BD151B1416921F082
:101AE00040014161606B08B1FFF7C9F8204600F082
:101AF00015FF002010BD704770B5026804461068DD
:101B0000D168536910F00F0F51D003F0010501F4B3
:101B1000907635435DD0C20705D0CA0503D5E26B88
:101B200042F00102E263420705D5DA0703D0E26B17
:101B300042F00202E263820705D5DA0703D0E26BC6
:101B400042F00402E263020705D5DA0703D0E26B34
:101B500042F00802E263E26B002A34D0800604D52A
:101B6000880602D5204600F0F0FE20684069E16B4F
:101B7000C0F3801001F008010143204624D000F09A
:101B8000CDFE2068416949061AD5416921F040011E
:101B90004161606BA0B11B490165606BFFF7B6F84E
:101BA000002810D0606B016DBDE8704008478306C7
:101BB0000FD58B060DD52046BDE8704000F0C5BEA0
:101BC0002046FFF798FF70BDFFF795FF0020E06308
:101BD00070BD030606D50B0604D52046BDE870404F
:101BE00001F050B84006F3D54806F1D5D16820463B
:101BF00021F04001D160202184F8391000F022FA50
:101C000070BD00004528000870B5040004D094F8A9
:101C10003900002510B106E0012070BD84F838506D
:101C2000204600F023F8242084F839002068C16899
:101C300021F40051C160204600F0CEFE2068016909
:101C400021F4904101612068416921F02A0141613C
:101C50002068C16841F40051C160E563202084F828
:101C6000390084F83A00002070BD00002DE9F04FE3
:101C700087B0054614216846FEF74AFB9E48DFF808
:101C8000748210380222D5F800C0DFF86CB203214C
:101C90000123DFF868A20024970606154FF04009DB
:101CA000C44559D1DBF8008048F40028CBF8008007
:101CB000DBF800C00CF4002CCDF814C0D0F800C044
:101CC0004CF0010CC0F800C0006800F00100059065
:101CD0008DE80E000820CDE9031069465046FFF755
:101CE000C1F9DFF8208286494046C8F80010C0E9F3
:101CF0000174C0E90346C8F81440C8F81840C8F891
:101D00001C40C8F82040BA46C8F82440FFF7E0F865
:101D100008B1FEF7B8FB7C4FC5F83480C8F83850DE
:101D2000C7F80890C7E903467C61BC617448FC6150
:101D30003C6230307C62C7E9000A3846FFF7C8F8D9
:101D400008B1FEF7A0FB2F63002205213420BD63FC
:101D5000FFF7F0FA342068E0DFF8B0814FF0070EAB
:101D6000C44567D1DFF890C1A3460CF1040CDCF840
:101D7000008048F01008CCF80080DCF800C00CF0BF
:101D8000100CCDF814C0D0F800C04CF0010CC0F815
:101D900000C00068CDE9023100F0010005904FF469
:101DA000C060CDE90002CDF810E069465046FFF76B
:101DB00059F9DFF8608156494046C8F80010C0E97B
:101DC0000174C0E90346C8F81440C8F81840C8F8C0
:101DD0001C40C8F82040C8F82440FFF779F808B143
:101DE000FEF751FB4A484C4CC5F834807830C8F8AF
:101DF000385084E88102C4E903B6C4F814B0C4F8CA
:101E000018B0C4F81CB0C4F820B02046C4F824B000
:101E1000FFF75EF808B1FEF736FB2C6300220521C0
:101E20002520A563FFF786FA2520FFF777FA07B08C
:101E3000BDE8F08FDFF8E480C445F8D1DBF800801E
:101E4000002448F40038CBF80080DBF800C00CF424
:101E5000003CCDF814C0D0F800C04CF0010CC0F824
:101E600000C00068CDE9023100F0010005900C20AF
:101E7000CDE90002CDF810E069465046FFF7F2F8D0
:101E80001F49DFF89C8048314046C8F80010C0E97F
:101E90000174C0E903464FF4807AC8F81440C0E9E1
:101EA000064AC8F82040C8F82440FFF711F808B1E6
:101EB000FEF7E9FA12481B4CC5F834806030C8F8C8
:101EC000385084E881020020C4E903066061C4E957
:101ED000060A206260622046FEF7FAFF08B1FEF7AC
:101EE000D2FA2C63002205212620A563FFF722FAEF
:101EF00026209AE7004C0040403802400000024093
:101F000040600240A00300200004002000100140B7
:101F10004064024060040020C004002000440040EF
:101F20002005002080050020F8B5044690F83A000E
:101F300020283CD1C1B3BAB394F83800012836D078
:101F4000012084F83800A162A2850025E5632220E3
:101F500084F83A00636B1748D863636B16481864BB
:101F6000636B1648D864606B134605650846666B5C
:101F7000216802463046091DFFF737F820680168DE
:101F80004168009184F83850C16841F48071C160A3
:101F90002068416941F0010141612068416941F0D7
:101FA000400141610020F8BDFFE70120FBE702206E
:101FB000F9E700009F280008DB28000855280008E2
:101FC0007047704770B5044690F83900202830D12A
:101FD00069B362B394F8380001282AD0012084F84C
:101FE00038002162A284E2840025E563212084F880
:101FF0003900236B1048D863236B10481864236B97
:102000000F48D864206B134605652668206B321D87
:10201000FEF7EBFF21686FF04000086084F838504D
:102020002068416941F080014161002070BD0120BC
:1020300070BD022070BD0000E528000813290008CB
:102040005528000870477047FEE7000010B501787A
:102050002D4C09290ED2DFE801F0050E1720293298
:102060003B444D00401C00F019F9BCEEC00A10EED4
:10207000100A207010BD401C00F010F9BCEEC00A20
:1020800010EE100A607010BD401C00F007F9BCEEA5
:10209000C00A10EE100AA07010BD401C00F0FEF83F
:1020A000BCEEC00A10EE100AE07010BD401C00F03B
:1020B000F5F8BCEEC00A10EE100A207110BD401CED
:1020C00000F0ECF8BCEEC00A10EE100A607110BD12
:1020D000401C00F0E3F8BCEEC00A10EE100AA0713C
:1020E00010BD401C00F0DAF8BCEEC00A10EE100A79
:1020F000E07110BD401C00F0D1F8BCEEC00A10EE3B
:10210000100A207210BD0000BD0000200B480A49D3
:102110004FF4002201600321416000218160C0E989
:1021200003124FF440124261017641768176C17606
:1021300001774177FEF764BC00640040B8020020DC
:10214000214808B5016841F480010160016801F48B
:1021500080010091016841F40011016000680022D3
:1021600000F40010009005210D20FFF7E3F80D208A
:10217000FFF7D4F8002205210F20FFF7DBF80F202E
:10218000FFF7CCF8002205211020FFF7D3F810202C
:10219000FFF7C4F8002205211120FFF7CBF811202A
:1021A000FFF7BCF8002205213A20FFF7C3F83A20D8
:1021B000FFF7B4F8002205214620FFF7BBF8BDE881
:1021C00008404620FFF7AAB83038024000B587B073
:1021D00014216846FEF79CF811480021026842F07D
:1021E00080020260026802F080020592026842F0FA
:1021F00001020260026802F001020592026842F0E8
:10220000020202600068029100F0020005900320C3
:10221000CDE9000169460348FEF724FF07B000BD81
:10222000303802400004024010B5124C10480C2116
:1022300020604FF4E13060600020A060E060C4E9FD
:102240000401A061E0612046FFF7DEFC2068C16860
:1022500041F01001C1606422A4F516712046FFF719
:1022600063FE2068C16841F02001C16010BD00001C
:102270000010014020030020FEE770470907090E07
:10228000002806DA00F00F0000F1E02080F8141DAD
:10229000704700F1E02080F80014704708B5002175
:1022A0004FEA0D02C1F10303C35C5354491CC9B288
:1022B0000429F7D39DED000A08BD000010B5017890
:1022C000154C07290ED2DFE801F0040E0D0D141A8B
:1022D0002000401CFFF7E2FFBDEEC00A0F4910EEE0
:1022E000100A088010BD401CFFF7D8FF84ED020AD9
:1022F00010BD401CFFF7D2FF84ED030A10BD401C47
:10230000FFF7CCFF84ED040A10BD401CFFF7C6FFA9
:1023100084ED050A10BD0000A000002098000020F8
:102320002DE9F04F3C4C00250F4681464FF0010B44
:1023300004F11806AA464FF0FF08616068E000BF8C
:10234000217819F80500022937D003DCE9B1012909
:102350005BD126E0F02905D0FF2956D1F02856D1CF
:10236000207054E020B1012807D0022808D04EE0A8
:1023700084F800A084F801A049E084F800B001E0EE
:102380000220207084F801A041E061787054491C5B
:10239000C8B2607004283AD91F481830FFF78EFF82
:1023A00033E061787054491CC8B2607004282ED99B
:1023B00019481830FFF74AFE27E06278B054521CE3
:1023C000D0B26070042822D930780A2802D0B02810
:1023D0000ED01AE00120325C0A2A00D0FF21401CF6
:1023E0000528F8DB2170022911D184F802B00CE035
:1023F0000120325CB02A00D0FF21401C0528F8DB08
:102400002170022903D184F802A084F800806D1C99
:10241000BD4295DBBDE8F08FA000002010B58AB06A
:1024200004466846FEF730F86846FEF757F827225C
:1024300002492046FFF7C6FD0AB010BD4343002005
:10244000012000F0EDFDFBE70A2000F0E9FD024865
:10245000FFF7E4FFF8E70000200300206E4C0025A2
:102460002DED028B84B025809FED6C8A41F2883679
:102470003222B0EE481AF0EE480AB0EE480A314671
:10248000674800F085FE6648B0EE481A6430F0EE0A
:10249000480AB0EE480A32223146029000F078FE37
:1024A0005F48B0EE481AC830F0EE480AB2EE040AAF
:1024B000322240F6AC51019000F06AFE9FED590ABD
:1024C000594981ED000A9FED590A5948DFF85091AA
:1024D000A346A9F1600980ED030A09F140019FEDCF
:1024E000558AAA460391012000F09AFD524C534DA3
:1024F0004D4E4FF4FA7741F2707894ED001AD5ED15
:10250000000A96ED000A3A464146454800F040FE72
:1025100094ED001AD5ED000A96ED000A3A464146C0
:10252000029800F035FEB9F902004D4600EE100A9F
:10253000BBF900005C4600EE900AB8EEC00A3848CD
:10254000F8EEE00A00F094FDBDEEC00A10EE100AAD
:102550000FFA80F8B5F9220000EE100AB4F9000075
:10256000404200EE900AB8EEC00A0298F8EEE00A87
:1025700000F07EFDBDEEC00A002610EE100A07B284
:10258000039800F097FC95ED150A294CB8EEC00AA7
:1025900084ED020A2088032802D0012835D02BE0E0
:1025A00002212748FEF736FE012825D194ED020AC4
:1025B00084ED010A30EE400AD4ED030AB4EEE00ADD
:1025C000F1EE10FA21D2B5F94200DFED1E0A00EE5D
:1025D000100AB8EEC00A07E0B5F94200F0EE480A6A
:1025E00000EE100AB8EEC00A019800F041FDBDEE01
:1025F000C00A10EE100A06B233463A464146124867
:10260000CDF800A000F0EAFF6DE702210C48FEF7CC
:1026100001FE0128F0D0DFE7980000200000000054
:102620008C01002000004842AC00002000409C4685
:10263000040000200080BB44B4000020B000002053
:10264000000402400080BBC4B8020020034C044DCB
:102650000A2000F0E5FCA08A2880F9E76C430020FE
:102660000400002010B5502080F31188BFF34F8F75
:10267000BFF36F8F01F026FA18B104494FF0805074
:102680000860002080F3118810BD000004ED00E018
:1026900030B593B030216846FDF73AFE14210CA8FE
:1026A000FDF736FE1A480025016841F080510160AF
:1026B000006800F0805011901648016841F4804194
:1026C00001600068022400F4804011900120009015
:1026D000000401908001CDE90640192008904FF4D4
:1026E000A870CDE9090404200B906846FEF75EFF50
:1026F0000CA90F2081E831004FF4A0500F90E002A8
:10270000109005210CA8FEF747FE13B030BD000065
:1027100040380240007000401048016841F47001E8
:1027200001600F48016841F0010101600C4A00217D
:102730000832116002680B4B1A400260031D0A4AFE
:102740001A60026822F48022026005480C300160A1
:1027500002495806803908607047000088ED00E0A3
:1027600000380240FFFFF6FE103000240148FFF75A
:10277000D6B8000014060020F0B50268234B244DA3
:10278000244E254F254C4FF0804C984209D060458F
:1027900007D0A84205D0B04203D0B84201D0A04231
:1027A00004D122F0700E4A6842EA0E0298421BD011
:1027B000604519D0A84217D0B04215D0B84213D006
:1027C000A04211D0164DA8420ED0164DA8420BD0F3
:1027D000154DA84208D0154DA84205D0144DA84269
:1027E00002D0144DA84203D122F44075CA682A438E
:1027F00002608A68C2620A688262984201D0A0427E
:1028000001D10969016301214161F0BD000001406E
:102810000004004000080040000C0040000401409B
:1028200000400140004401400048014000180040C1
:10283000001C0040002000400148FFF75DB9000087
:10284000E002002010B5806B0021C185C184FFF734
:1028500052F910BD70B5846B2068406994F8391046
:10286000C0F3C0100025212904D118B1E584204609
:1028700000F062F82068406994F83A10C0F38010C4
:10288000222904D118B1E585204600F047F8E06B15
:1028900040F01000E0632046FFF72DF970BD10B541
:1028A0000146806B09680968C90513D40021C185F8
:1028B0000168CA6822F48072CA6001684A6922F01D
:1028C00001024A6101684A6922F040024A612021FE
:1028D00080F83A10FFF774FB10BD10B5806BFFF75E
:1028E00070FB10BD10B50146806B09680968C90509
:1028F0000CD40021C18401684A6922F080024A6137
:102900000068C16841F04001C16010BDFFF79AFB4B
:1029100010BD10B5806BFFF796FB10BD0168CA684B
:1029200022F49072CA6001684A6922F001024A6189
:10293000202180F83A1070470168CA6822F0C0026E
:10294000CA60202180F83910704710B590F83A100D
:10295000222901D0022010BD8168B1F5805F11D01D
:102960000169002901681FD0496801F07F03816A6D
:102970004A1C82620B70C18D491E0904090CC18575
:1029800018D026E00269816A002A0268526805D0E0
:10299000D2B20A80816A491C8162ECE7C2F3080264
:1029A0000A80816A891CF7E74A68816A4B1C836246
:1029B0000A70E0E70168CA6822F49072CA60016890
:1029C0004A6922F001024A61202180F83A10FFF79B
:1029D000F7FA002010BD00002DE9F0410446006820
:1029E000016921F44052E168114301612168C8681E
:1029F00049F20C6290432369A268E5691A4363694E
:102A00002B431A430243CA602168486920F440728C
:102A1000A06910434861E1696425B1F5004F97480A
:102A2000974A21684FF032083FD0914201D081424D
:102A30007CD1FEF779FD00EBC00101EB001061686D
:102A40008900B0FBF1F6FEF76FFD00EBC00101EB72
:102A5000001061688900B0FBF1F0B0FBF5F06FF099
:102A60001801484306EB800108EB0110B0FBF5F0BC
:102A700000F0F006FEF758FD00EBC00101EB00107E
:102A800061688900B0FBF1F0B0FBF5F006EB0016D1
:102A9000FEF74AFD00EBC00101EB00106168890000
:102AA000B0FBF1F7FEF740FDD2E0914201D0814248
:102AB0003DD1FEF739FD00EBC00101EB001061686C
:102AC0004900B0FBF1F0B0FBF5F00601FEF72CFD7C
:102AD00000EBC00101EB001061684900B0FBF1F7A9
:102AE000FEF722FD00EBC00101EB00106168490018
:102AF000B0FBF1F0B0FBF5F06FF01801484307EBC5
:102B0000800108EBC100B0FBF5F000F0F80006EB27
:102B10004006FEF709FD00EBC00101EB0010616803
:102B20004900B0FBF1F7FEF7FFFC3CE055E0FEF793
:102B3000EBFC00EBC00101EB001061684900B0FB49
:102B4000F1F0B0FBF5F00601FEF7DEFC00EBC00192
:102B500001EB001061684900B0FBF1F7FEF7D4FC0F
:102B600000EBC00101EB001061684900B0FBF1F01F
:102B7000B0FBF5F06FF01801484307EB800108EB5C
:102B8000C100B0FBF5F000F0F80006EB4006FEF7E0
:102B9000BBFC00EBC00101EB001061684900B0FB19
:102BA000F1F7FEF7B1FC00EBC00101EB001061682A
:102BB0004900B0FBF1F0B0FBF5F06FF018014843AD
:102BC00007EB800108EBC100B0FBF5F000F0070057
:102BD000216830448860BDE8F081FEF795FC00EB89
:102BE000C00101EB001061688900B0FBF1F6FEF74F
:102BF0008BFC00EBC00101EB001061688900B0FBA9
:102C0000F1F0B0FBF5F06FF01801484306EB8001DE
:102C100008EB0110B0FBF5F000F0F006FEF774FCD5
:102C200000EBC00101EB001061688900B0FBF1F01E
:102C3000B0FBF5F006EB0016FEF766FC00EBC001FA
:102C400001EB001061688900B0FBF1F7FEF75CFC56
:102C500000EBC00101EB001061688900B0FBF1F0EE
:102C6000B0FBF5F06FF01801484307EB800108EB6B
:102C70000110B0FBF5F000F00F00A9E700140140CF
:102C80000010014090F83910212901D0022070472E
:102C90008168B1F5805F016A0BD04A1C026202684C
:102CA00009785160C18C491E0904090CC1840ED0F9
:102CB00017E009880268C1F3080151600169002921
:102CC000016A02D0491C0162ECE7891CFBE701683C
:102CD000CA6822F08002CA600068C16841F0400101
:102CE000C16000207047000008B51448FEF704FFDB
:102CF00012481349006888421FD10168C1F30011CE
:102D000000291AD00F4A0121117001684068009013
:102D10000A48FEF7C4FE0C4800684068C0F1640130
:102D20000A48017001780A48FFF7FAFABDE808403E
:102D3000642207490148FFF7F7B808BD20030020C7
:102D4000001001400100002060040020000000206D
:102D5000C800002010B50648FEF7CEFE044800F07B
:102D600081F8BDE810400349034800F02CB800008A
:102D700060030020E00500206C430020FEE702E035
:102D800008C8121F08C1002AFAD1704770470020F6
:102D900001E001C1121F002AFBD17047D0ED000AEB
:102DA000F4EEC00AF1EE10FA01DD80ED000AD0ED7C
:102DB000000AB1EE400AF4EEC00AF1EE10FA01D2B8
:102DC00080ED000A70470A88C2F30A0202604A785E
:102DD0008B78D20842EA4312C2F30A0242608A7830
:102DE000CB78920942EA83020B7942EA8322C2F34A
:102DF0000A0282600A794B79520842EAC312C2F38E
:102E00000A02C2604A79920902614979C1F301114B
:102E10004161704770B50446114A90F83A00202885
:102E200017D194F83800012813D0012184F8381004
:102E30003223A262A3850025E5632168606B091D2A
:102E4000FEF7B0F82068416941F04001416184F823
:102E500038502068C16841F01001C16070BD0000A9
:102E6000E005002038B5044600680168C9061DD594
:102E7000016840680090606B0068016821F0010102
:102E80000160606B05686868202805D03221084819
:102E9000FDF73EFA012000E0002032216960616BFD
:102EA00009680A6842F001020A6038BD012038BD95
:102EB000E005002030B5038941895A1A8B4202D2BD
:102EC00002F5005101E0A2F50051002901DD0C4698
:102ED00000E04C42002A01DD154600E05542AC42BC
:102EE00000DB1146426911444161438130BD00005D
:102EF00096B0FEF7A3F9FFF7CBFBFFF767F9FFF7F3
:102F00001FF9FFF703F9FFF78FF930482E494FF407
:102F1000E13500240160C0E901540C26C460C0E919
:102F200004468461C461FEF76FFE28482849803852
:102F30000160C0E90154C460C0E904468461C46111
:102F4000FEF762FE2148FFF765FF2048A83800F031
:102F50004BF814221F496846FDF7C1F90021684665
:102F600000F06EF81C4C1B4914222061143105A896
:102F7000FDF7B5F9002105A800F062F81549606178
:102F8000142228310AA8FDF7AAF900210AA800F0A6
:102F900057F81049A06114223C310FA8FDF79FF9A2
:102FA00000210FA800F04CF80A49E0610839D1E986
:102FB0000001CDE91401002114A800F03DF82062C1
:102FC00000F035F8FEE700000044004060030020F8
:102FD000004C0040CC3C00080400002001460020CA
:102FE000842900D0C81C704710B58AB0002104465F
:102FF0000E200091CDE904100191029103910691F8
:1030000001210791089169462046FDF7F7FA022150
:103010002046FDF77BFA2046FDF7FEFD0AB010BD05
:1030200010B500B9012000F0B9FB002010BD10B5AB
:1030300000F0DAFB002010BD03C8002200F0AEBC97
:103040003EB504460D46B0F90800FFF7C7FF02A9D8
:10305000CDE90001208A2B4682B2D4E9001000F0AD
:1030600005FD012801D000203EBD02983EBD0000B4
:1030700000B530EEC01A80ED080AC0ED050A80EDFB
:103080000B1AD0ED141A01469FED402A30EEC00A0B
:10309000F5EEC01AB1EE400AF1EE10FA0ED0B5EE20
:1030A000C01AF1EE10FA02DDF0EE410A01E0F0EE96
:1030B000400AF4EEE10AF1EE10FA12DCD1ED150A45
:1030C000F5EEC00AF1EE10FA0ED0B5EEC01AF1EE30
:1030D00010FA01DDB0EE410AB4EEE00AF1EE10FAAA
:1030E00002D2B0EE420A00BD91ED000A01F13400B7
:1030F00020EE010A81ED0C0A91ED0D0AD1ED010AD5
:1031000000EE810A81ED0D0A91ED0A0AD1ED020A65
:1031100031EE400A20EE200A81ED0E0A91ED180AE8
:10312000B8EE400AFFF73AFE91ED0C0AD1ED0D0A18
:1031300001F13C0030EE200AD1ED0E0A30EE200AFB
:1031400081ED0F0A91ED170AB8EE400AFFF726FE4F
:1031500091ED0F0A81ED100AD1ED0A0AC1ED090ABD
:10316000D1ED0B0AC1ED0A0AD1ED070AC1ED060A3D
:10317000D1ED080AC1ED070AD1ED040AC1ED030A39
:10318000D1ED050AC1ED040A00BD000000000000F9
:10319000C0E9171280EC030A704700002DE9F041E6
:1031A000184C0F460546E6682068001D00F040FAFE
:1031B00038B9206890F82C1001208840216981439B
:1031C0002161681C07D137B12168BDE8F0410E4884
:1031D000091D00F065BA20683544B5424560216894
:1031E00005D2A06BBDE8F041091D00F041BA606B4B
:1031F000091D00F03DFAA06A854200D2A562BDE833
:10320000F0810000380000202C0700202DE9F0415B
:10321000054600F051FA2E4CA068401CA0602068C2
:103220002C4F10B1606940B32DE02560A0680128E3
:1032300029D1002606EB860007EB800000F00AFA91
:10324000761C072EF6D323488C3000F003FA214871
:10325000A03000F0FFF91F48B43000F0FBF91D4822
:10326000C83000F0F7F91B48DC3000F0F3F91948DA
:103270008C3060631430A06305E02068E96AC06A9E
:10328000884200D82560606A401C6062E96A0120BB
:10329000226988401043206101EB810007EB800028
:1032A000291D00F0FDF900F027FA606900280CD014
:1032B0002068E96AC06A884207D207494FF0805007
:1032C0000860BFF34F8FBFF36F8FBDE8F081000040
:1032D000380000205006002004ED00E070B5114ECB
:1032E000114C17E000F0B4FA3068B8B100F088FC77
:1032F00000F0E2F9F068C568281D00F099F9A068AF
:10330000401EA0606068401E606000F0F5F928462D
:1033100000F00CF860680028E4D170BD00F070FC8B
:10332000F8E70000180700203800002010B5044618
:10333000006B00F0F5F92046BDE8104000F0F0B950
:1033400010484FF47051420706D0C01D0D4920F0BF
:103350000700411AC1F570510B4A00230144C2E92C
:1033600000030839103A21F0070111604B600B602F
:103370000B1AC0E9001393604FF000405360D06017
:10338000704700004007002084000020074C4FF0E9
:103390008056074DFFF7A2FF20680128FAD92E605A
:1033A000BFF34F8FBFF36F8FF4E70000500600208C
:1033B00004ED00E02DE9F0479A46DDE909848146F5
:1033C0006FF00303206B03EB82021044089D20F092
:1033D0000706700707D0502080F31188BFF34F8F86
:1033E000BFF36F8FFEE723180A5C83F834200A5C72
:1033F00012B1401C1028F6D3002784F84370072D23
:1034000000D30625E562C4E91157201D00F02DF90F
:1034100004F1180000F029F92461C5F10700646285
:10342000A061E76484F8507052464946304600F087
:10343000BFF82060B8F1000F01D0C8F80040BDE827
:10344000F087000030B5114900E011460A68824259
:10345000FBD34B685C18844203D140681844486031
:10346000084643681C18944209D1084C103C246853
:10347000A24209D052681A4442600A681268026087
:10348000814200D0086030BD0460F9E7840000206C
:103490000648416B096829B1416BC968C968496828
:1034A000816270474FF0FF31FAE7000038000020DA
:1034B00008484068401C4FF0500080F3118804D049
:1034C000BFF34F8FBFF36F8FFEE7BFF34F8FBFF395
:1034D0006F8FFEE78C0000202DE9F04105460027A4
:1034E00000F0B6F9314E306808B9FFF729FFF068EF
:1034F00005424BD1C5B3083568070ED005F007006B
:10350000C0F108000544680707D0502080F31188F7
:10351000BFF34F8FBFF36F8FFEE72DB37068854207
:1035200034D82248103001460C6801E020460C4691
:103530006168A94202D221680029F7D131688C4222
:1035400024D007682168016060680837411B102992
:103550000FD96019420708D0502080F31188BFF3BB
:103560004F8FBFF36F8FFEE710E041606560FFF79C
:1035700069FF61687068401A7060B268904200D25A
:10358000B060F06801430020C4E9000100F038FB9E
:10359000780707D0502080F31188BFF34F8FBFF317
:1035A0006F8FFEE73846BDE8F08100007400002010
:1035B00010B5031F4FF080741C601B1F21F0010128
:1035C0001960191F044B0B6014390A60091F6FF052
:1035D000020244380A6010BDB134000810B58AB048
:1035E0004FF400740C980294002404940594082469
:1035F00006940C0A8DF800408DF80110110A8DF820
:103600000210190A8DF804108DF80530010A8DF8A2
:1036100006108DF803208DF8070008AB6A4602A952
:103620000248FCF787FF0AB010BD0000B802002076
:10363000D0E9013201699A60D0E901235A604A68F1
:10364000824201D182684A60002202610868401EFD
:103650000860704700F108014FF0FF32C0E9011225
:10366000C160016100210160704700210161704764
:1036700030B50B685A1C02D000F1080202E0026962
:1036800004E02246546825689D42FAD953684B608D
:1036900099608A60516008610168491C016030BD11
:1036A00042684A6093688B609368596091600861D2
:1036B0000168491C01607047502080F31188BFF3F6
:1036C0004F8FBFF36F8F0A494868401C486001283C
:1036D0000CD10848006810F0FF0F07D0502080F38D
:1036E0001188BFF34F8FBFF36F8FFEE77047000065
:1036F0008C00002004ED00E00849486828B1401E15
:10370000486001D180F311887047502080F3118800
:10371000BFF34F8FBFF36F8FFEE700008C000020D8
:1037200070B5002827D0144DA0F108046168E8683E
:10373000014207D1502080F31188BFF34F8FBFF3B0
:103740006F8FFEE722683AB1502080F31188BFF3F3
:103750004F8FBFF36F8FFEE78143616000F078F811
:1037600060686968084468602046FFF76BFEBDE842
:10377000704000F045BA70BD7400002006484FF458
:103780007A710068B0FBF1F14FF0E020491E416111
:1037900007210161704700003400002010B50200CD
:1037A00014D00F48006B38B1502080F31188BFF35C
:1037B0004F8FBFF36F8FFEE700F04AF800211046ED
:1037C000FFF7ECFC00F01CFA002807D105494FF088
:1037D00080500860BFF34F8FBFF36F8F10BD0000A4
:1037E0003800002004ED00E01CB515480024CDE9A8
:1037F00000402346802213A1144800F037F9012825
:1038000009D0401C1AD1502080F31188BFF34F8F8C
:10381000BFF36F8FFEE7502080F31188BFF34F8F07
:10382000BFF36F8F06484FF0FF312C3881620121C2
:103830004161C460BDE81C4000F040B81CBD000000
:103840006400002049444C45000000008D3300080E
:103850000248016B491C01637047000038000020DA
:103860001448016B11B10121C16170470021C16190
:103870000169B1FA81F1C1F11F0101EB81020E4929
:1038800051F822306BB101EB820101F108034A6863
:1038900052684A609A4201D152684A60D168016018
:1038A0007047502080F31188BFF34F8FBFF36F8FA5
:1038B000FEE7000038000020500600201CB532480A
:1038C0000168324A914207D1502080F31188BFF33A
:1038D0004F8FBFF36F8FFEE700682C49491E884267
:1038E00007D1502080F31188BFF34F8FBFF36F8F44
:1038F000FEE7274908780190FF20087008788DF8C6
:1039000000009DF800009DF8002000F0F0009042BB
:1039100007D0502080F31188BFF34F8FBFF36F8F14
:10392000FEE79DF800001B4A00F0500010700720D1
:10393000906005E09DF800305B008DF80030401E7F
:103940009DF800301B06F5D4000200F4E0609060A2
:10395000019808700C482030016841F47001016042
:10396000016841F070410160FFF708FF00205060DE
:10397000FCF734FC0848016841F040410160FCF765
:103980001DFC00201CBD000000ED00E071C20F41D5
:1039900000E400E08C00002034EF00E070B50E463B
:1039A000050013D0D6B105FB06F04830FFF794FDB3
:1039B000040009D004F1480120468EB10160C0E93D
:1039C0000F56012100F00EF8204670BD502080F304
:1039D0001188BFF34F8FBFF36F8FFEE70020E4E73E
:1039E0000060ECE770B50D46040025D0FFF764FEDB
:1039F000D4E90F20216802FB001161600021A1635E
:103A00002168A1600A46D4E90F01401E00FB012194
:103A1000E16021464FF0FF3001F8440F487004F197
:103A200010008DB1FFF716FE04F12400FFF712FE1F
:103A3000FFF762FE012070BD502080F31188BFF3B4
:103A40004F8FBFF36F8FFEE721690029F0D000F0A0
:103A50009DF80028ECD004494FF080500860BFF377
:103A60004F8FBFF36F8FE3E704ED00E02DE9FF5FB9
:103A70008346DDE90E87994616468A469000FFF791
:103A80002BFD05001AD05420FFF726FD040012D0AC
:103A900025630021CDE90241CDE900874B4632463E
:103AA00051465846FFF786FC2046FFF7AFFB012042
:103AB00004B0BDE8F09F2846FFF732FE4FF0FF301C
:103AC000F6E700002DE9F0412E4C0027206B40B1B5
:103AD000A069401CA061E06900B101273846BDE83B
:103AE000F081E668761CE66013D1606B006838B13F
:103AF000502080F31188BFF34F8FBFF36F8FFEE725
:103B0000606BA16B6163A063206A401C2062FFF7B9
:103B1000BFFCA06ADFF87080864209D3606B006842
:103B200080B1606BC068C568686886420DD2A062CB
:103B30002068C06A00EB800158F821000128CAD92A
:103B40000127C8E74FF0FF30F1E7281DFFF770FDB0
:103B5000A86A18B105F11800FFF76AFDE86A0121AB
:103B6000226981401143216100EB800108EB810053
:103B7000291DFFF795FDE86A2168C96A8842CDD3FF
:103B80000127CBE738000020500600202DE9F04146
:103B9000C068C468ACB104F118000746FFF748FDDF
:103BA000154D286B0126A0B139461448FFF778FD62
:103BB000E06A2968C96A88421CD90120EE61BDE823
:103BC000F081502080F31188BFF34F8FBFF36F8FC8
:103BD000FEE7201DFFF72CFDE16A2A6906FA01F0D5
:103BE0001043286101EB81000449B43901EB8000E6
:103BF000211DDBE70020E2E7380000200407002059
:103C00002DE9F0472C4D00242746286B38B1FFF7EB
:103C100053FD286B401E2863286B40B146E05020BE
:103C200080F31188BFF34F8FBFF36F8FFEE7A96852
:103C3000224E0120D1B3A6F1B40980463068E8B124
:103C4000F068C46804F11800FFF7F2FC201DFFF7CC
:103C5000EFFCE06A2A6908FA00F11143296100EBE0
:103C6000800109EB8100211DFFF71AFDE06A296838
:103C7000C96A8842E2D3C5F81C80DFE70CB1FFF7C0
:103C800007FCAC6944B14646FFF71CFF00B1EE618A
:103C9000641EF9D10020A861E86938B108490127FC
:103CA00038070860BFF34F8FBFF36F8FFFF724FD16
:103CB0003846BDE8F08700003800002004070020E7
:103CC00004ED00E01000000002000000603D00086C
:103CD00041240008000000000000000080000000F7
:103CE0003C3D000849240008FDFF000000000000E2
:103CF00080000000483D00085D240008FDFF000032
:103D00000000000080000000543D00084D2600081F
:103D1000FDFF0000000000008000000000061016FB
:103D2000000610160000000000000000010203045D
:103D30000607080900000000010203046D795461C0
:103D4000736B3032000000006D795461736B303357
:103D5000000000006D795461736B30340000000086
:103D600064656661756C745461736B008C3D00080A
:103D700000000020C80000007E2D0008543E00080E
:103D8000C8000020C04600008E2D00080000000082
:103D90000000000000000000000000000000000023
:103DA0000000000000000000000000000000000013
:103DB00000000000010000001000000000000000F2
:103DC0000024F400000000000000000000000000DB
:103DD00000000000000000000000000000000000E3
:103DE00000000000000000000000000000000000D3
:103DF00000000000000000000000000000000000C3
:103E000000000000000000000000000000000000B2
:103E1000000000000000000000000000AAAAAAAAFA
:103E2000000000000000000000000000FF00000093
:103E30000000000000000000000000000000000082
:103E4000000000000000000000000102030405065D
:043E5000070800005F
:040000050800018965
:00000001FF
